{
  "_format": "hh-sol-artifact-1",
  "contractName": "NFTMarketplace",
  "sourceName": "contracts/NFTMarketplace.sol",
  "abi": [
    {
      "inputs": [],
      "stateMutability": "nonpayable",
      "type": "constructor"
    },
    {
      "anonymous": false,
      "inputs": [
        {
          "indexed": true,
          "internalType": "address",
          "name": "owner",
          "type": "address"
        },
        {
          "indexed": true,
          "internalType": "address",
          "name": "approved",
          "type": "address"
        },
        {
          "indexed": true,
          "internalType": "uint256",
          "name": "tokenId",
          "type": "uint256"
        }
      ],
      "name": "Approval",
      "type": "event"
    },
    {
      "anonymous": false,
      "inputs": [
        {
          "indexed": true,
          "internalType": "address",
          "name": "owner",
          "type": "address"
        },
        {
          "indexed": true,
          "internalType": "address",
          "name": "operator",
          "type": "address"
        },
        {
          "indexed": false,
          "internalType": "bool",
          "name": "approved",
          "type": "bool"
        }
      ],
      "name": "ApprovalForAll",
      "type": "event"
    },
    {
      "anonymous": false,
      "inputs": [
        {
          "indexed": true,
          "internalType": "address",
          "name": "from",
          "type": "address"
        },
        {
          "indexed": true,
          "internalType": "address",
          "name": "to",
          "type": "address"
        },
        {
          "indexed": true,
          "internalType": "uint256",
          "name": "tokenId",
          "type": "uint256"
        }
      ],
      "name": "Transfer",
      "type": "event"
    },
    {
      "inputs": [
        {
          "internalType": "address",
          "name": "to",
          "type": "address"
        },
        {
          "internalType": "uint256",
          "name": "tokenId",
          "type": "uint256"
        }
      ],
      "name": "approve",
      "outputs": [],
      "stateMutability": "nonpayable",
      "type": "function"
    },
    {
      "inputs": [
        {
          "internalType": "address",
          "name": "owner",
          "type": "address"
        }
      ],
      "name": "balanceOf",
      "outputs": [
        {
          "internalType": "uint256",
          "name": "",
          "type": "uint256"
        }
      ],
      "stateMutability": "view",
      "type": "function"
    },
    {
      "inputs": [
        {
          "internalType": "string",
          "name": "tokenURI",
          "type": "string"
        },
        {
          "internalType": "uint256",
          "name": "price",
          "type": "uint256"
        }
      ],
      "name": "createToken",
      "outputs": [
        {
          "internalType": "uint256",
          "name": "",
          "type": "uint256"
        }
      ],
      "stateMutability": "payable",
      "type": "function"
    },
    {
      "inputs": [
        {
          "internalType": "uint256",
          "name": "tokenId",
          "type": "uint256"
        }
      ],
      "name": "executeSale",
      "outputs": [],
      "stateMutability": "payable",
      "type": "function"
    },
    {
      "inputs": [],
      "name": "getAllNFTs",
      "outputs": [
        {
          "components": [
            {
              "internalType": "uint256",
              "name": "tokenId",
              "type": "uint256"
            },
            {
              "internalType": "address payable",
              "name": "owner",
              "type": "address"
            },
            {
              "internalType": "address payable",
              "name": "seller",
              "type": "address"
            },
            {
              "internalType": "uint256",
              "name": "price",
              "type": "uint256"
            },
            {
              "internalType": "bool",
              "name": "currentlyListed",
              "type": "bool"
            }
          ],
          "internalType": "struct NFTMarketplace.ListedToken[]",
          "name": "",
          "type": "tuple[]"
        }
      ],
      "stateMutability": "view",
      "type": "function"
    },
    {
      "inputs": [
        {
          "internalType": "uint256",
          "name": "tokenId",
          "type": "uint256"
        }
      ],
      "name": "getApproved",
      "outputs": [
        {
          "internalType": "address",
          "name": "",
          "type": "address"
        }
      ],
      "stateMutability": "view",
      "type": "function"
    },
    {
      "inputs": [],
      "name": "getCurrentTokenId",
      "outputs": [
        {
          "internalType": "uint256",
          "name": "",
          "type": "uint256"
        }
      ],
      "stateMutability": "view",
      "type": "function"
    },
    {
      "inputs": [],
      "name": "getLatestIdToListedToken",
      "outputs": [
        {
          "components": [
            {
              "internalType": "uint256",
              "name": "tokenId",
              "type": "uint256"
            },
            {
              "internalType": "address payable",
              "name": "owner",
              "type": "address"
            },
            {
              "internalType": "address payable",
              "name": "seller",
              "type": "address"
            },
            {
              "internalType": "uint256",
              "name": "price",
              "type": "uint256"
            },
            {
              "internalType": "bool",
              "name": "currentlyListed",
              "type": "bool"
            }
          ],
          "internalType": "struct NFTMarketplace.ListedToken",
          "name": "",
          "type": "tuple"
        }
      ],
      "stateMutability": "view",
      "type": "function"
    },
    {
      "inputs": [],
      "name": "getListPrice",
      "outputs": [
        {
          "internalType": "uint256",
          "name": "",
          "type": "uint256"
        }
      ],
      "stateMutability": "view",
      "type": "function"
    },
    {
      "inputs": [
        {
          "internalType": "uint256",
          "name": "tokenId",
          "type": "uint256"
        }
      ],
      "name": "getListedForTokenId",
      "outputs": [
        {
          "components": [
            {
              "internalType": "uint256",
              "name": "tokenId",
              "type": "uint256"
            },
            {
              "internalType": "address payable",
              "name": "owner",
              "type": "address"
            },
            {
              "internalType": "address payable",
              "name": "seller",
              "type": "address"
            },
            {
              "internalType": "uint256",
              "name": "price",
              "type": "uint256"
            },
            {
              "internalType": "bool",
              "name": "currentlyListed",
              "type": "bool"
            }
          ],
          "internalType": "struct NFTMarketplace.ListedToken",
          "name": "",
          "type": "tuple"
        }
      ],
      "stateMutability": "view",
      "type": "function"
    },
    {
      "inputs": [],
      "name": "getMyNfts",
      "outputs": [
        {
          "components": [
            {
              "internalType": "uint256",
              "name": "tokenId",
              "type": "uint256"
            },
            {
              "internalType": "address payable",
              "name": "owner",
              "type": "address"
            },
            {
              "internalType": "address payable",
              "name": "seller",
              "type": "address"
            },
            {
              "internalType": "uint256",
              "name": "price",
              "type": "uint256"
            },
            {
              "internalType": "bool",
              "name": "currentlyListed",
              "type": "bool"
            }
          ],
          "internalType": "struct NFTMarketplace.ListedToken[]",
          "name": "",
          "type": "tuple[]"
        }
      ],
      "stateMutability": "view",
      "type": "function"
    },
    {
      "inputs": [
        {
          "internalType": "address",
          "name": "owner",
          "type": "address"
        },
        {
          "internalType": "address",
          "name": "operator",
          "type": "address"
        }
      ],
      "name": "isApprovedForAll",
      "outputs": [
        {
          "internalType": "bool",
          "name": "",
          "type": "bool"
        }
      ],
      "stateMutability": "view",
      "type": "function"
    },
    {
      "inputs": [],
      "name": "name",
      "outputs": [
        {
          "internalType": "string",
          "name": "",
          "type": "string"
        }
      ],
      "stateMutability": "view",
      "type": "function"
    },
    {
      "inputs": [
        {
          "internalType": "uint256",
          "name": "tokenId",
          "type": "uint256"
        }
      ],
      "name": "ownerOf",
      "outputs": [
        {
          "internalType": "address",
          "name": "",
          "type": "address"
        }
      ],
      "stateMutability": "view",
      "type": "function"
    },
    {
      "inputs": [
        {
          "internalType": "address",
          "name": "from",
          "type": "address"
        },
        {
          "internalType": "address",
          "name": "to",
          "type": "address"
        },
        {
          "internalType": "uint256",
          "name": "tokenId",
          "type": "uint256"
        }
      ],
      "name": "safeTransferFrom",
      "outputs": [],
      "stateMutability": "nonpayable",
      "type": "function"
    },
    {
      "inputs": [
        {
          "internalType": "address",
          "name": "from",
          "type": "address"
        },
        {
          "internalType": "address",
          "name": "to",
          "type": "address"
        },
        {
          "internalType": "uint256",
          "name": "tokenId",
          "type": "uint256"
        },
        {
          "internalType": "bytes",
          "name": "data",
          "type": "bytes"
        }
      ],
      "name": "safeTransferFrom",
      "outputs": [],
      "stateMutability": "nonpayable",
      "type": "function"
    },
    {
      "inputs": [
        {
          "internalType": "address",
          "name": "operator",
          "type": "address"
        },
        {
          "internalType": "bool",
          "name": "approved",
          "type": "bool"
        }
      ],
      "name": "setApprovalForAll",
      "outputs": [],
      "stateMutability": "nonpayable",
      "type": "function"
    },
    {
      "inputs": [
        {
          "internalType": "bytes4",
          "name": "interfaceId",
          "type": "bytes4"
        }
      ],
      "name": "supportsInterface",
      "outputs": [
        {
          "internalType": "bool",
          "name": "",
          "type": "bool"
        }
      ],
      "stateMutability": "view",
      "type": "function"
    },
    {
      "inputs": [],
      "name": "symbol",
      "outputs": [
        {
          "internalType": "string",
          "name": "",
          "type": "string"
        }
      ],
      "stateMutability": "view",
      "type": "function"
    },
    {
      "inputs": [
        {
          "internalType": "uint256",
          "name": "tokenId",
          "type": "uint256"
        }
      ],
      "name": "tokenURI",
      "outputs": [
        {
          "internalType": "string",
          "name": "",
          "type": "string"
        }
      ],
      "stateMutability": "view",
      "type": "function"
    },
    {
      "inputs": [
        {
          "internalType": "address",
          "name": "from",
          "type": "address"
        },
        {
          "internalType": "address",
          "name": "to",
          "type": "address"
        },
        {
          "internalType": "uint256",
          "name": "tokenId",
          "type": "uint256"
        }
      ],
      "name": "transferFrom",
      "outputs": [],
      "stateMutability": "nonpayable",
      "type": "function"
    },
    {
      "inputs": [
        {
          "internalType": "uint256",
          "name": "_listPrice",
          "type": "uint256"
        }
      ],
      "name": "updateListPrice",
      "outputs": [],
      "stateMutability": "payable",
      "type": "function"
    }
  ],
  "bytecode": "0x6080604052662386f26fc10000600a553480156200001c57600080fd5b50604080518082018252600e81526d4e46544d61726b6574706c61636560901b6020808301918252835180850190945260048452634e46544d60e01b9084015281519192916200006f91600091620000a0565b50805162000085906001906020840190620000a0565b5050600780546001600160a01b031916331790555062000183565b828054620000ae9062000146565b90600052602060002090601f016020900481019282620000d257600085556200011d565b82601f10620000ed57805160ff19168380011785556200011d565b828001600101855582156200011d579182015b828111156200011d57825182559160200191906001019062000100565b506200012b9291506200012f565b5090565b5b808211156200012b576000815560010162000130565b600181811c908216806200015b57607f821691505b602082108114156200017d57634e487b7160e01b600052602260045260246000fd5b50919050565b611fad80620001936000396000f3fe6080604052600436106101355760003560e01c806372b3b620116100ab578063b88d4fde1161006f578063b88d4fde1461034d578063c322579c1461036d578063c87b56dd14610380578063d1a88ae5146103a0578063e0391b09146103b5578063e985e9c5146103ca57600080fd5b806372b3b620146102c557806395d89b41146102d857806398c3df16146102ed5780639b1225c41461031a578063a22cb4651461032d57600080fd5b806323b872dd116100fd57806323b872dd1461020d57806342842e0e1461022d578063561892361461024d5780636352211e1461027057806368f1945f1461029057806370a08231146102a557600080fd5b806301ffc9a71461013a578063047b07bf1461016f57806306fdde0314610191578063081812fc146101b3578063095ea7b3146101eb575b600080fd5b34801561014657600080fd5b5061015a610155366004611bb9565b610413565b60405190151581526020015b60405180910390f35b34801561017b57600080fd5b50610184610465565b6040516101669190611d37565b34801561019d57600080fd5b506101a66106aa565b6040516101669190611d85565b3480156101bf57600080fd5b506101d36101ce366004611c47565b61073c565b6040516001600160a01b039091168152602001610166565b3480156101f757600080fd5b5061020b610206366004611b90565b610763565b005b34801561021957600080fd5b5061020b610228366004611aa2565b61087e565b34801561023957600080fd5b5061020b610248366004611aa2565b6108af565b34801561025957600080fd5b506102626108ca565b604051908152602001610166565b34801561027c57600080fd5b506101d361028b366004611c47565b6108da565b34801561029c57600080fd5b50600a54610262565b3480156102b157600080fd5b506102626102c0366004611a56565b61093a565b6102626102d3366004611bf1565b6109c0565b3480156102e457600080fd5b506101a6610aae565b3480156102f957600080fd5b5061030d610308366004611c47565b610abd565b6040516101669190611e38565b61020b610328366004611c47565b610b27565b34801561033957600080fd5b5061020b610348366004611b56565b610c85565b34801561035957600080fd5b5061020b610368366004611add565b610c94565b61020b61037b366004611c47565b610cc6565b34801561038c57600080fd5b506101a661039b366004611c47565b610ce2565b3480156103ac57600080fd5b5061030d610df3565b3480156103c157600080fd5b50610184610e6a565b3480156103d657600080fd5b5061015a6103e5366004611a70565b6001600160a01b03918216600090815260056020908152604080832093909416825291909152205460ff1690565b60006001600160e01b031982166380ac58cd60e01b148061044457506001600160e01b03198216635b5e139f60e01b145b8061045f57506301ffc9a760e01b6001600160e01b03198316145b92915050565b6060600061047260085490565b905060008060005b8381101561050a5733600b6000610492846001611e46565b81526020810191909152604001600020600101546001600160a01b031614806104e5575033600b60006104c6846001611e46565b81526020810191909152604001600020600201546001600160a01b0316145b156104f8576104f5600184611e46565b92505b8061050281611ef0565b91505061047a565b5060008267ffffffffffffffff81111561053457634e487b7160e01b600052604160045260246000fd5b60405190808252806020026020018201604052801561056d57816020015b61055a6118fd565b8152602001906001900390816105525790505b50905060005b848110156106a15733600b600061058b846001611e46565b81526020810191909152604001600020600101546001600160a01b031614806105de575033600b60006105bf846001611e46565b81526020810191909152604001600020600201546001600160a01b0316145b1561068f5760006105f0826001611e46565b6000818152600b6020908152604091829020825160a0810184528154815260018201546001600160a01b039081169382019390935260028201549092169282019290925260038201546060820152600482015460ff16151560808201528551929350909185908790811061067457634e487b7160e01b600052603260045260246000fd5b602090810291909101015261068a600186611e46565b945050505b8061069981611ef0565b915050610573565b50949350505050565b6060600080546106b990611eb5565b80601f01602080910402602001604051908101604052809291908181526020018280546106e590611eb5565b80156107325780601f1061070757610100808354040283529160200191610732565b820191906000526020600020905b81548152906001019060200180831161071557829003601f168201915b5050505050905090565b600061074782610fb1565b506000908152600460205260409020546001600160a01b031690565b600061076e826108da565b9050806001600160a01b0316836001600160a01b031614156107e15760405162461bcd60e51b815260206004820152602160248201527f4552433732313a20617070726f76616c20746f2063757272656e74206f776e656044820152603960f91b60648201526084015b60405180910390fd5b336001600160a01b03821614806107fd57506107fd81336103e5565b61086f5760405162461bcd60e51b815260206004820152603e60248201527f4552433732313a20617070726f76652063616c6c6572206973206e6f7420746f60448201527f6b656e206f776e6572206e6f7220617070726f76656420666f7220616c6c000060648201526084016107d8565b6108798383611013565b505050565b6108883382611081565b6108a45760405162461bcd60e51b81526004016107d890611dea565b6108798383836110ff565b61087983838360405180602001604052806000815250610c94565b60006108d560085490565b905090565b6000818152600260205260408120546001600160a01b03168061045f5760405162461bcd60e51b8152602060048201526018602482015277115490cdcc8c4e881a5b9d985b1a59081d1bdad95b88125160421b60448201526064016107d8565b60006001600160a01b0382166109a45760405162461bcd60e51b815260206004820152602960248201527f4552433732313a2061646472657373207a65726f206973206e6f7420612076616044820152683634b21037bbb732b960b91b60648201526084016107d8565b506001600160a01b031660009081526003602052604090205490565b6000600a543414610a135760405162461bcd60e51b815260206004820152601a60248201527f53656e6420656e6f7567687420657468657220746f206c69737400000000000060448201526064016107d8565b60008211610a6e5760405162461bcd60e51b815260206004820152602260248201527f4d616b6520737572652074686520707269636520696e732774206e6567617469604482015261766560f01b60648201526084016107d8565b610a7c600880546001019055565b6000610a8760085490565b9050610a93338261129b565b610a9d81856112b5565b610aa7818461134f565b9392505050565b6060600180546106b990611eb5565b610ac56118fd565b506000908152600b6020908152604091829020825160a0810184528154815260018201546001600160a01b03908116938201939093526002820154909216928201929092526003820154606082015260049091015460ff161515608082015290565b6000818152600b6020526040902060030154348114610bae5760405162461bcd60e51b815260206004820152603f60248201527f506c65617365207375626d6974207468652061736b696e67207072696365206660448201527f6f7220746865204e465420696e206f7264657220746f2070757263686173650060648201526084016107d8565b6000828152600b602052604090206002810180546004909201805460ff191660011790556001600160a01b03198216331790556001600160a01b0316610bf8600980546001019055565b610c033033856110ff565b610c0d3084610763565b600754600a546040516001600160a01b039092169181156108fc0291906000818181858888f19350505050158015610c49573d6000803e3d6000fd5b506040516001600160a01b038216903480156108fc02916000818181858888f19350505050158015610c7f573d6000803e3d6000fd5b50505050565b610c903383836113ec565b5050565b610c9e3383611081565b610cba5760405162461bcd60e51b81526004016107d890611dea565b610c7f848484846114bb565b6007546001600160a01b03163314610cdd57600080fd5b600a55565b6060610ced82610fb1565b60008281526006602052604081208054610d0690611eb5565b80601f0160208091040260200160405190810160405280929190818152602001828054610d3290611eb5565b8015610d7f5780601f10610d5457610100808354040283529160200191610d7f565b820191906000526020600020905b815481529060010190602001808311610d6257829003601f168201915b505050505090506000610d9d60408051602081019091526000815290565b9050805160001415610db0575092915050565b815115610de2578082604051602001610dca929190611ccb565b60405160208183030381529060405292505050919050565b610deb846114ee565b949350505050565b610dfb6118fd565b6000610e0660085490565b6000908152600b6020908152604091829020825160a0810184528154815260018201546001600160a01b03908116938201939093526002820154909216928201929092526003820154606082015260049091015460ff161515608082015292915050565b60606000610e7760085490565b905060008167ffffffffffffffff811115610ea257634e487b7160e01b600052604160045260246000fd5b604051908082528060200260200182016040528015610edb57816020015b610ec86118fd565b815260200190600190039081610ec05790505b5090506000805b83811015610fa8576000610ef7826001611e46565b6000818152600b6020908152604091829020825160a0810184528154815260018201546001600160a01b039081169382019390935260028201549092169282019290925260038201546060820152600482015460ff161515608082015286519293509091869086908110610f7b57634e487b7160e01b600052603260045260246000fd5b6020908102919091010152610f91600185611e46565b935050508080610fa090611ef0565b915050610ee2565b50909392505050565b6000818152600260205260409020546001600160a01b03166110105760405162461bcd60e51b8152602060048201526018602482015277115490cdcc8c4e881a5b9d985b1a59081d1bdad95b88125160421b60448201526064016107d8565b50565b600081815260046020526040902080546001600160a01b0319166001600160a01b0384169081179091558190611048826108da565b6001600160a01b03167f8c5be1e5ebec7d5bd14f71427d1e84f3dd0314c0f7b2291e5b200ac8c7c3b92560405160405180910390a45050565b60008061108d836108da565b9050806001600160a01b0316846001600160a01b031614806110d457506001600160a01b0380821660009081526005602090815260408083209388168352929052205460ff165b80610deb5750836001600160a01b03166110ed8461073c565b6001600160a01b031614949350505050565b826001600160a01b0316611112826108da565b6001600160a01b0316146111765760405162461bcd60e51b815260206004820152602560248201527f4552433732313a207472616e736665722066726f6d20696e636f72726563742060448201526437bbb732b960d91b60648201526084016107d8565b6001600160a01b0382166111d85760405162461bcd60e51b8152602060048201526024808201527f4552433732313a207472616e7366657220746f20746865207a65726f206164646044820152637265737360e01b60648201526084016107d8565b6111e3600082611013565b6001600160a01b038316600090815260036020526040812080546001929061120c908490611e72565b90915550506001600160a01b038216600090815260036020526040812080546001929061123a908490611e46565b909155505060008181526002602052604080822080546001600160a01b0319166001600160a01b0386811691821790925591518493918716917fddf252ad1be2c89b69c2b068fc378daa952ba7f163c4a11628f55a4df523b3ef91a4505050565b610c90828260405180602001604052806000815250611561565b6000828152600260205260409020546001600160a01b03166113305760405162461bcd60e51b815260206004820152602e60248201527f45524337323155524953746f726167653a2055524920736574206f66206e6f6e60448201526d32bc34b9ba32b73a103a37b5b2b760911b60648201526084016107d8565b600082815260066020908152604090912082516108799284019061192b565b6040805160a081018252838152306020808301828152338486018181526060860188815260016080880181815260008c8152600b9097529890952096518755925193860180546001600160a01b039586166001600160a01b03199182161790915590516002870180549190951691161790925551600384015592516004909201805492151560ff1990931692909217909155610c909190846110ff565b816001600160a01b0316836001600160a01b0316141561144e5760405162461bcd60e51b815260206004820152601960248201527f4552433732313a20617070726f766520746f2063616c6c65720000000000000060448201526064016107d8565b6001600160a01b03838116600081815260056020908152604080832094871680845294825291829020805460ff191686151590811790915591519182527f17307eab39ab6107e8899845ad3d59bd9653f200f220920489ca2b5937696c31910160405180910390a3505050565b6114c68484846110ff565b6114d284848484611594565b610c7f5760405162461bcd60e51b81526004016107d890611d98565b60606114f982610fb1565b600061151060408051602081019091526000815290565b905060008151116115305760405180602001604052806000815250610aa7565b8061153a846116a1565b60405160200161154b929190611ccb565b6040516020818303038152906040529392505050565b61156b83836117bb565b6115786000848484611594565b6108795760405162461bcd60e51b81526004016107d890611d98565b60006001600160a01b0384163b1561169657604051630a85bd0160e11b81526001600160a01b0385169063150b7a02906115d8903390899088908890600401611cfa565b602060405180830381600087803b1580156115f257600080fd5b505af1925050508015611622575060408051601f3d908101601f1916820190925261161f91810190611bd5565b60015b61167c573d808015611650576040519150601f19603f3d011682016040523d82523d6000602084013e611655565b606091505b5080516116745760405162461bcd60e51b81526004016107d890611d98565b805181602001fd5b6001600160e01b031916630a85bd0160e11b149050610deb565b506001949350505050565b6060816116c55750506040805180820190915260018152600360fc1b602082015290565b8160005b81156116ef57806116d981611ef0565b91506116e89050600a83611e5e565b91506116c9565b60008167ffffffffffffffff81111561171857634e487b7160e01b600052604160045260246000fd5b6040519080825280601f01601f191660200182016040528015611742576020820181803683370190505b5090505b8415610deb57611757600183611e72565b9150611764600a86611f0b565b61176f906030611e46565b60f81b81838151811061179257634e487b7160e01b600052603260045260246000fd5b60200101906001600160f81b031916908160001a9053506117b4600a86611e5e565b9450611746565b6001600160a01b0382166118115760405162461bcd60e51b815260206004820181905260248201527f4552433732313a206d696e7420746f20746865207a65726f206164647265737360448201526064016107d8565b6000818152600260205260409020546001600160a01b0316156118765760405162461bcd60e51b815260206004820152601c60248201527f4552433732313a20746f6b656e20616c7265616479206d696e7465640000000060448201526064016107d8565b6001600160a01b038216600090815260036020526040812080546001929061189f908490611e46565b909155505060008181526002602052604080822080546001600160a01b0319166001600160a01b03861690811790915590518392907fddf252ad1be2c89b69c2b068fc378daa952ba7f163c4a11628f55a4df523b3ef908290a45050565b6040805160a08101825260008082526020820181905291810182905260608101829052608081019190915290565b82805461193790611eb5565b90600052602060002090601f016020900481019282611959576000855561199f565b82601f1061197257805160ff191683800117855561199f565b8280016001018555821561199f579182015b8281111561199f578251825591602001919060010190611984565b506119ab9291506119af565b5090565b5b808211156119ab57600081556001016119b0565b600067ffffffffffffffff808411156119df576119df611f4b565b604051601f8501601f19908116603f01168101908282118183101715611a0757611a07611f4b565b81604052809350858152868686011115611a2057600080fd5b858560208301376000602087830101525050509392505050565b80356001600160a01b0381168114611a5157600080fd5b919050565b600060208284031215611a67578081fd5b610aa782611a3a565b60008060408385031215611a82578081fd5b611a8b83611a3a565b9150611a9960208401611a3a565b90509250929050565b600080600060608486031215611ab6578081fd5b611abf84611a3a565b9250611acd60208501611a3a565b9150604084013590509250925092565b60008060008060808587031215611af2578081fd5b611afb85611a3a565b9350611b0960208601611a3a565b925060408501359150606085013567ffffffffffffffff811115611b2b578182fd5b8501601f81018713611b3b578182fd5b611b4a878235602084016119c4565b91505092959194509250565b60008060408385031215611b68578182fd5b611b7183611a3a565b915060208301358015158114611b85578182fd5b809150509250929050565b60008060408385031215611ba2578182fd5b611bab83611a3a565b946020939093013593505050565b600060208284031215611bca578081fd5b8135610aa781611f61565b600060208284031215611be6578081fd5b8151610aa781611f61565b60008060408385031215611c03578182fd5b823567ffffffffffffffff811115611c19578283fd5b8301601f81018513611c29578283fd5b611c38858235602084016119c4565b95602094909401359450505050565b600060208284031215611c58578081fd5b5035919050565b60008151808452611c77816020860160208601611e89565b601f01601f19169290920160200192915050565b805182526020808201516001600160a01b039081169184019190915260408083015190911690830152606080820151908301526080908101511515910152565b60008351611cdd818460208801611e89565b835190830190611cf1818360208801611e89565b01949350505050565b6001600160a01b0385811682528416602082015260408101839052608060608201819052600090611d2d90830184611c5f565b9695505050505050565b6020808252825182820181905260009190848201906040850190845b81811015611d7957611d66838551611c8b565b9284019260a09290920191600101611d53565b50909695505050505050565b602081526000610aa76020830184611c5f565b60208082526032908201527f4552433732313a207472616e7366657220746f206e6f6e20455243373231526560408201527131b2b4bb32b91034b6b83632b6b2b73a32b960711b606082015260800190565b6020808252602e908201527f4552433732313a2063616c6c6572206973206e6f7420746f6b656e206f776e6560408201526d1c881b9bdc88185c1c1c9bdd995960921b606082015260800190565b60a0810161045f8284611c8b565b60008219821115611e5957611e59611f1f565b500190565b600082611e6d57611e6d611f35565b500490565b600082821015611e8457611e84611f1f565b500390565b60005b83811015611ea4578181015183820152602001611e8c565b83811115610c7f5750506000910152565b600181811c90821680611ec957607f821691505b60208210811415611eea57634e487b7160e01b600052602260045260246000fd5b50919050565b6000600019821415611f0457611f04611f1f565b5060010190565b600082611f1a57611f1a611f35565b500690565b634e487b7160e01b600052601160045260246000fd5b634e487b7160e01b600052601260045260246000fd5b634e487b7160e01b600052604160045260246000fd5b6001600160e01b03198116811461101057600080fdfea26469706673582212208f6f03c09fc19d77d827ae34485beb8c0f85670ebfba5b8e84e695f1ab1b339164736f6c63430008040033",
  "linkReferences": {},
  "deployedLinkReferences": {}
}